:040000000209F732C8
:03000B0002005799
:0100130032BA
:01001B0032B2
:100023000204690000000000000000000022753196
:10003300FF11262274161204EBC208227414120450
:10004300EBC20922D2B4D202221206A9C2E4F0F50D
:1000530052D20322C0E0C0D0C082C083758A00752B
:100063008CA6E545A29533541FF545B40005C20C93
:1000730002007BB41F02D20CE544A2B233541FF535
:1000830044B40005C20D020091B41F02D20D20003A
:100093001AE539B40009C2053008101137800C1570
:1000A30035E535B4000515397535B420011AE54039
:1000B300B40009C206300910113F800C1536E5362D
:1000C300B4000515407536B420020BE537B40004BF
:1000D30011478002153720030BE538B40004114C97
:1000E30080021538D083D082D0D0D0E0329018006F
:1000F300E0900800E022300037300C34112674B54C
:100103001204EBC2007535B47539030534E534B414
:100113003102801CB4320774111204EB8012B43321
:100123000774171204EB800874121204EB7534334E
:10013300200059200C561126E534B4311A20050746
:100143007534301201902274151204EB753430D2D9
:100153000074B41204EB22200D152005077534300A
:1001630012019022753430D20074B41204EB22E5EC
:1001730034B4330F20050412019022D20074B41258
:1001830004EB227534322005F21201902274191205
:1001930004EBD20074B41204EBD205D2082230016E
:1001A30020300D1D112674B31204EBC2017536B451
:1001B3007540030534E534B431028005741112042B
:1001C300EB20014F200D4C1126E534B4311A2006E3
:1001D300077534301202172274131204EB7534308E
:1001E300D20174B21204EB22200C0A7534302006BB
:1001F3001312021722E534B439127534322006047F
:1002030012021722D20174B21204EB222006F51255
:100213000217222274181204EBD20174B21204EBF7
:10022300D206D209220206B50206BD0206C502069F
:10023300CD0206D50206DD0206E50206ED0206F54D
:100243000206FD02070502070D02071502071D023C
:10025300072502072D02073502073D02074502075E
:100263004D02075502075D02076502076D02077518
:1002730002078202078F02079702079F0207A7025E
:1002830007AF0207B70207BF0207C70207CF02077C
:10029300D70207DF0207E70207EF0207F70207FFAC
:1002A30002080802081102081A02082302082C0295
:1002B300083502083E020468020468020468020466
:1002C300680204680204680204680204680204689D
:1002D30002046802046802046802046802046802F3
:1002E3000468020468020514020468020523020478
:1002F30068020532020468020541020468020550DF
:1003030002046802055F02046802056E02046802C3
:10031300057D02046802058C02046802059B020441
:10032300680205AA0204680205B90204680205C846
:100333000204680205D70204680205E602046802A3
:1003430005F50204680206040204680206130204A7
:1003530068020622020468020631020468020640AB
:1003630002046802064F02046802065E0204680281
:10037300066D02046802067C020468020689020410
:1003830068020696020468020468020468020468AC
:100393000204680204680204680204680204680232
:1003A3000468020468020847020468020859020448
:1003B3006802086B02046802087D02046802088F61
:1003C3000204680208A10204680208B30204680276
:1003D30008C50204680208D70204680208E9020497
:1003E300680208FB02046802090D02046802091F7F
:1003F3000204680209310204680209430204680224
:1004030009550204680209670204680209790204B3
:100413006802098B02046802099D0204680209AF9D
:100423000204680209C10204680209D302046802D3
:1004330009E502046802046802046802046802040D
:10044300680204680204680204680204680204681B
:100453000204680204680204680204680204680271
:10046300046802046822C0E0C0D0C083C082309810
:1004730017C298E599B40204C204801EB40304D2DF
:100483000480171204A6801230990FC29930100805
:10049300C21085479902049DD20BD082D083D0D05D
:1004A300D0E032300441F533E533C39472500EE5A6
:1004B30033C3945275F003A49002287322E533C327
:1004C30094C1500EE533C3948275F003A49002E8FF
:1004D3007322E533C394F2500EE533C394C275F02F
:1004E30003A49003A8732222B41107C2B4C20275F5
:1004F300370A300B05C20BF59922201004F547D2B9
:100503001022900400E022900500E022900600E013
:1005130022B10520E005748291EB22748391EB22D2
:10052300B10520E105748491EB22748591EB22B12E
:100533000520E205748691EB22748791EB22B105C5
:1005430020E305748891EB22748991EB22B1052095
:10055300E405748A91EB22748B91EB22B10520E5BB
:1005630005748C91EB22748D91EB22B10520E60585
:10057300748E91EB22748F91EB22B10520E7057401
:100583009091EB22749191EB22B10A20E0057492D1
:1005930091EB22749391EB22B10A20E105749491BB
:1005A300EB22749591EB22B10A20E205749691EB4C
:1005B30022749791EB22B10A20E305749891EB2200
:1005C300749991EB22B10A20E405749A91EB227499
:1005D3009B91EB22B10A20E505749C91EB22749D5B
:1005E30091EB22B10A20E605749E91EB22749F9150
:1005F300EB22B10A20E70574A091EB2274A191EBE1
:1006030022B10F20E00574A291EB2274A391EB2297
:10061300B10F20E10574A491EB2274A591EB22B1F3
:100623000F20E20574A691EB2274A791EB22B10F80
:1006330020E30574A891EB2274A991EB22B10F205A
:10064300E40574AA91EB2274AB91EB22B10F20E580
:100653000574AC91EB2274AD91EB22B10F20E6054A
:1006630074AE91EB2274AF91EB22B10F20E70574C6
:10067300B091EB2274B191EB22200D0574B291EB92
:100683002274B391EB22200C0574B491EB2274B560
:1006930091EB2220960574B691EB2274B791EB226D
:1006A300900800E55122900900E55222900A00E5E6
:1006B3005322D1A3C2E0F551F022D1A3D2E0F551E8
:1006C300F022D1A3C2E1F551F022D1A3D2E1F55139
:1006D300F022D1A3C2E2F551F022D1A3D2E2F55127
:1006E300F022D1A3C2E3F551F022D1A3D2E3F55115
:1006F300F022D1A3C2E4F551F022D1A3D2E4F55103
:10070300F022D1A3C2E5F551F022D1A3D2E5F551F0
:10071300F022D1A3C2E6F551F022D1A3D2E6F551DE
:10072300F022D1A3C2E7F551F022D1A3D2E7F551CC
:10073300F022D1A9C2E0F552F022D1A9D2E0F552BC
:10074300F022D1A9C2E1F552F022D1A9D2E1F552AA
:10075300F022D1A9C2E2F552F022D1A9D2E2F55298
:10076300F022D1A9C2E3F552F022D1A9D2E3F55286
:10077300F022D1A9D2E4F552F0C20375380122D197
:10078300A9D2E4F552F0C20375382822D1A9C2E5F3
:10079300F552F022D1A9D2E5F552F022D1A9C2E651
:1007A300F552F022D1A9D2E6F552F022D1A9C2E73F
:1007B300F552F022D1A9D2E7F552F022D1AFC2E02F
:1007C300F553F022D1AFD2E0F553F022D1AFC2E11D
:1007D300F553F022D1AFD2E1F553F022D1AFC2E20B
:1007E300F553F022D1AFD2E2F553F022D1AFC2E3F9
:1007F300F553F022D1AFD2E3F553F0221206AFC284
:10080300E4F553F0221206AFD2E4F553F0221206B8
:10081300AFC2E5F553F0221206AFD2E5F553F0224D
:100823001206AFC2E6F553F0221206AFD2E6F55335
:10083300F0221206AFC2E7F553F0221206AFD2E759
:10084300F553F0221206A320E00674C21204EB2231
:1008530074C31204EB221206A320E10674C412042B
:10086300EB2274C51204EB221206A320E20674C61F
:100873001204EB2274C71204EB221206A320E30630
:1008830074C81204EB2274C91204EB221206A320CB
:10089300E40674CA1204EB2274CB1204EB22120690
:1008A300A320E50674CC1204EB2274CD1204EB22D0
:1008B3001206A320E60674CE1204EB2274CF1204B0
:1008C300EB221206A320E70674D01204EB2274D1A4
:1008D3001204EB221206A920E00674D21204EB22C2
:1008E30074D31204EB221206A920E10674D4120475
:1008F300EB2274D51204EB221206A920E20674D669
:100903001204EB2274D71204EB221206A920E30689
:1009130074D81204EB2274D91204EB221206A92014
:10092300E40674DA1204EB2274DB1204EB221206DF
:10093300A920E50674DC1204EB2274DD1204EB2219
:100943001206A920E60674DE1204EB2274DF1204F9
:10095300EB221206A920E70674E01204EB2274E1ED
:100963001204EB221206AF20E00674E21204EB221B
:1009730074E31204EB221206AF20E10674E41204BE
:10098300EB2274E51204EB221206AF20E20674E6B2
:100993001204EB2274E71204EB221206AF20E306E3
:1009A30074E81204EB2274E91204EB221206AF205E
:1009B300E40674EA1204EB2274EB1204EB2212062F
:1009C300AF20E50674EC1204EB2274ED1204EB2263
:1009D3001206AF20E60674EE1204EB2274EF120443
:1009E300EB221206AF20E70674F01204EB2274F137
:1009F3001204EB2275A88775B81075870075985097
:100A030075892175885F758DFD758BFDD28ED29C9E
:100A1300D2ACD28CD2A9D202D203D200D201D20458
:100A2300D205D206D209D208D20AD291D207D20E67
:100A3300D20BC295C2B2C293754500754400C3750B
:100A430033FF75343074101204EB753280900B0051
:100A5300E532F07400F551900800F07400F55290FF
:100A63000900F07400F553900A00F01200F0120030
:090A7300F91200F01201A180F259
:00000001FF
